{
  "contractName": "Auction",
  "abi": [
    {
      "anonymous": false,
      "inputs": [
        {
          "indexed": false,
          "internalType": "string",
          "name": "itemName",
          "type": "string"
        },
        {
          "indexed": false,
          "internalType": "address",
          "name": "winner",
          "type": "address"
        },
        {
          "indexed": false,
          "internalType": "uint256",
          "name": "amount",
          "type": "uint256"
        }
      ],
      "name": "AuctionEnded",
      "type": "event"
    },
    {
      "anonymous": false,
      "inputs": [
        {
          "indexed": true,
          "internalType": "address",
          "name": "bidder",
          "type": "address"
        },
        {
          "indexed": false,
          "internalType": "uint256",
          "name": "amount",
          "type": "uint256"
        },
        {
          "indexed": false,
          "internalType": "string",
          "name": "itemName",
          "type": "string"
        }
      ],
      "name": "NewBid",
      "type": "event"
    },
    {
      "inputs": [
        {
          "internalType": "uint256",
          "name": "",
          "type": "uint256"
        }
      ],
      "name": "expirationTimestamps",
      "outputs": [
        {
          "internalType": "uint256",
          "name": "",
          "type": "uint256"
        }
      ],
      "stateMutability": "view",
      "type": "function",
      "constant": true
    },
    {
      "inputs": [
        {
          "internalType": "uint256",
          "name": "",
          "type": "uint256"
        }
      ],
      "name": "items",
      "outputs": [
        {
          "internalType": "address",
          "name": "seller",
          "type": "address"
        },
        {
          "internalType": "string",
          "name": "itemName",
          "type": "string"
        },
        {
          "internalType": "uint256",
          "name": "auctionEndTime",
          "type": "uint256"
        },
        {
          "internalType": "address",
          "name": "highestBidder",
          "type": "address"
        },
        {
          "internalType": "uint256",
          "name": "highestBid",
          "type": "uint256"
        },
        {
          "internalType": "bool",
          "name": "active",
          "type": "bool"
        }
      ],
      "stateMutability": "view",
      "type": "function",
      "constant": true
    },
    {
      "inputs": [
        {
          "internalType": "string",
          "name": "itemName",
          "type": "string"
        },
        {
          "internalType": "uint256",
          "name": "durationInMinutes",
          "type": "uint256"
        }
      ],
      "name": "createItem",
      "outputs": [],
      "stateMutability": "nonpayable",
      "type": "function"
    },
    {
      "inputs": [
        {
          "internalType": "string",
          "name": "itemName",
          "type": "string"
        }
      ],
      "name": "placeBid",
      "outputs": [],
      "stateMutability": "payable",
      "type": "function",
      "payable": true
    },
    {
      "inputs": [
        {
          "internalType": "string",
          "name": "itemName",
          "type": "string"
        }
      ],
      "name": "getBidders",
      "outputs": [
        {
          "internalType": "address[]",
          "name": "",
          "type": "address[]"
        }
      ],
      "stateMutability": "view",
      "type": "function",
      "constant": true
    },
    {
      "inputs": [
        {
          "internalType": "string",
          "name": "itemName",
          "type": "string"
        }
      ],
      "name": "getHighestBidderAndAmount",
      "outputs": [
        {
          "internalType": "address",
          "name": "",
          "type": "address"
        },
        {
          "internalType": "uint256",
          "name": "",
          "type": "uint256"
        }
      ],
      "stateMutability": "view",
      "type": "function",
      "constant": true
    },
    {
      "inputs": [],
      "name": "checkExpiredItems",
      "outputs": [],
      "stateMutability": "nonpayable",
      "type": "function"
    }
  ],
  "bytecode": "0x608060405234801561000f575f80fd5b50611cfe8061001d5f395ff3fe60806040526004361061006f575f3560e01c8063c13b1b131161004d578063c13b1b1314610118578063cf740fcc14610154578063e967e60c1461016a578063f7f3286c146101865761006f565b80638c55174214610073578063bd45a1c11461009b578063bfb231d2146100d7575b5f80fd5b34801561007e575f80fd5b506100996004803603810190610094919061129b565b6101c3565b005b3480156100a6575f80fd5b506100c160048036038101906100bc91906112f5565b6102ad565b6040516100ce9190611423565b60405180910390f35b3480156100e2575f80fd5b506100fd60048036038101906100f89190611443565b610367565b60405161010f96959493929190611520565b60405180910390f35b348015610123575f80fd5b5061013e60048036038101906101399190611443565b61047d565b60405161014b9190611586565b60405180910390f35b34801561015f575f80fd5b5061016861049d565b005b610184600480360381019061017f91906112f5565b6105dc565b005b348015610191575f80fd5b506101ac60048036038101906101a791906112f5565b610b4d565b6040516101ba92919061159f565b60405180910390f35b5f8060018160018154018082558091505003905f5260205f209060080201905033815f015f6101000a81548173ffffffffffffffffffffffffffffffffffffffff021916908373ffffffffffffffffffffffffffffffffffffffff1602179055508281600101908161023591906117c0565b506005603c8361024591906118bc565b4261025091906118fd565b61025a91906118fd565b81600201819055506001816007015f6101000a81548160ff02191690831515021790555060018160020154908060018154018082558091505060019003905f5260205f20015f9091909190915055505050565b60605f6102b983610bca565b90505f81815481106102ce576102cd611930565b5b905f5260205f20906008020160060180548060200260200160405190810160405280929190818152602001828054801561035a57602002820191905f5260205f20905b815f9054906101000a900473ffffffffffffffffffffffffffffffffffffffff1673ffffffffffffffffffffffffffffffffffffffff1681526020019060010190808311610311575b5050505050915050919050565b5f8181548110610375575f80fd5b905f5260205f2090600802015f91509050805f015f9054906101000a900473ffffffffffffffffffffffffffffffffffffffff16908060010180546103b9906115f3565b80601f01602080910402602001604051908101604052809291908181526020018280546103e5906115f3565b80156104305780601f1061040757610100808354040283529160200191610430565b820191905f5260205f20905b81548152906001019060200180831161041357829003601f168201915b505050505090806002015490806003015f9054906101000a900473ffffffffffffffffffffffffffffffffffffffff1690806004015490806007015f9054906101000a900460ff16905086565b6001818154811061048c575f80fd5b905f5260205f20015f915090505481565b5f4290505f5b6001805490508110156105d85781600182815481106104c5576104c4611930565b5b905f5260205f2001541115801561050e5750600115155f82815481106104ee576104ed611930565b5b905f5260205f2090600802016007015f9054906101000a900460ff161515145b156105c5576105c45f828154811061052957610528611930565b5b905f5260205f2090600802016001018054610543906115f3565b80601f016020809104026020016040519081016040528092919081815260200182805461056f906115f3565b80156105ba5780601f10610591576101008083540402835291602001916105ba565b820191905f5260205f20905b81548152906001019060200180831161059d57829003601f168201915b5050505050610c7d565b5b80806105d09061195d565b9150506104a3565b5050565b805f6105e782610bca565b90505f81815481106105fc576105fb611930565b5b905f5260205f20906008020160020154421061064d576040517f08c379a0000000000000000000000000000000000000000000000000000000008152600401610644906119ee565b60405180910390fd5b5f61065784610bca565b90505f818154811061066c5761066b611930565b5b905f5260205f2090600802016007015f9054906101000a900460ff166106c7576040517f08c379a00000000000000000000000000000000000000000000000000000000081526004016106be90611a56565b60405180910390fd5b5f81815481106106da576106d9611930565b5b905f5260205f2090600802015f015f9054906101000a900473ffffffffffffffffffffffffffffffffffffffff1673ffffffffffffffffffffffffffffffffffffffff163373ffffffffffffffffffffffffffffffffffffffff1603610775576040517f08c379a000000000000000000000000000000000000000000000000000000000815260040161076c90611abe565b60405180910390fd5b5f80828154811061078957610788611930565b5b905f5260205f2090600802016005015f3373ffffffffffffffffffffffffffffffffffffffff1673ffffffffffffffffffffffffffffffffffffffff1681526020019081526020015f2054111561087c573373ffffffffffffffffffffffffffffffffffffffff166108fc5f838154811061080757610806611930565b5b905f5260205f2090600802016005015f3373ffffffffffffffffffffffffffffffffffffffff1673ffffffffffffffffffffffffffffffffffffffff1681526020019081526020015f205490811502906040515f60405180830381858888f1935050505015801561087a573d5f803e3d5ffd5b505b345f82815481106108905761088f611930565b5b905f5260205f2090600802016005015f3373ffffffffffffffffffffffffffffffffffffffff1673ffffffffffffffffffffffffffffffffffffffff1681526020019081526020015f20819055505f3490505f82815481106108f5576108f4611930565b5b905f5260205f2090600802016004015481111561099457335f83815481106109205761091f611930565b5b905f5260205f2090600802016003015f6101000a81548173ffffffffffffffffffffffffffffffffffffffff021916908373ffffffffffffffffffffffffffffffffffffffff160217905550805f83815481106109805761097f611930565b5b905f5260205f209060080201600401819055505b5f805b5f84815481106109aa576109a9611930565b5b905f5260205f20906008020160060180549050811015610a6e573373ffffffffffffffffffffffffffffffffffffffff165f85815481106109ee576109ed611930565b5b905f5260205f2090600802016006018281548110610a0f57610a0e611930565b5b905f5260205f20015f9054906101000a900473ffffffffffffffffffffffffffffffffffffffff1673ffffffffffffffffffffffffffffffffffffffff1603610a5b5760019150610a6e565b8080610a669061195d565b915050610997565b5080610af5575f8381548110610a8757610a86611930565b5b905f5260205f20906008020160060133908060018154018082558091505060019003905f5260205f20015f9091909190916101000a81548173ffffffffffffffffffffffffffffffffffffffff021916908373ffffffffffffffffffffffffffffffffffffffff1602179055505b3373ffffffffffffffffffffffffffffffffffffffff167f054e9957c988de4f3814f0b1e964d1c7a597e80dcf597fc7ede2aa25843424428388604051610b3d929190611adc565b60405180910390a2505050505050565b5f805f610b5984610bca565b90505f8181548110610b6e57610b6d611930565b5b905f5260205f2090600802016003015f9054906101000a900473ffffffffffffffffffffffffffffffffffffffff165f8281548110610bb057610baf611930565b5b905f5260205f209060080201600401549250925050915091565b5f805f90505b5f80549050811015610c3c5782805190602001205f8281548110610bf757610bf6611930565b5b905f5260205f209060080201600101604051610c139190611ba6565b604051809103902003610c295780915050610c78565b8080610c349061195d565b915050610bd0565b506040517f08c379a0000000000000000000000000000000000000000000000000000000008152600401610c6f90611c06565b60405180910390fd5b919050565b805f610c8882610bca565b90505f8181548110610c9d57610c9c611930565b5b905f5260205f20906008020160020154421015610cef576040517f08c379a0000000000000000000000000000000000000000000000000000000008152600401610ce690611c6e565b60405180910390fd5b5f610cf984610bca565b90505f8181548110610d0e57610d0d611930565b5b905f5260205f2090600802016007015f9054906101000a900460ff16610d69576040517f08c379a0000000000000000000000000000000000000000000000000000000008152600401610d6090611a56565b60405180910390fd5b5f808281548110610d7d57610d7c611930565b5b905f5260205f2090600802016007015f6101000a81548160ff0219169083151502179055507fa0fb15ce4bc38fa6151bf16630e38863764a7bb541866d083619bc5b6b93ad02845f8381548110610dd757610dd6611930565b5b905f5260205f2090600802016003015f9054906101000a900473ffffffffffffffffffffffffffffffffffffffff165f8481548110610e1957610e18611930565b5b905f5260205f20906008020160040154604051610e3893929190611c8c565b60405180910390a15f5b5f8281548110610e5557610e54611930565b5b905f5260205f20906008020160060180549050811015610fb7575f8281548110610e8257610e81611930565b5b905f5260205f2090600802016003015f9054906101000a900473ffffffffffffffffffffffffffffffffffffffff1673ffffffffffffffffffffffffffffffffffffffff165f8381548110610eda57610ed9611930565b5b905f5260205f2090600802016006018281548110610efb57610efa611930565b5b905f5260205f20015f9054906101000a900473ffffffffffffffffffffffffffffffffffffffff1673ffffffffffffffffffffffffffffffffffffffff1614610fa457610fa3855f8481548110610f5557610f54611930565b5b905f5260205f2090600802016006018381548110610f7657610f75611930565b5b905f5260205f20015f9054906101000a900473ffffffffffffffffffffffffffffffffffffffff16611064565b5b8080610faf9061195d565b915050610e42565b505f8181548110610fcb57610fca611930565b5b905f5260205f2090600802015f015f9054906101000a900473ffffffffffffffffffffffffffffffffffffffff1673ffffffffffffffffffffffffffffffffffffffff166108fc5f838154811061102557611024611930565b5b905f5260205f2090600802016004015490811502906040515f60405180830381858888f1935050505015801561105d573d5f803e3d5ffd5b5050505050565b5f61106e83610bca565b90505f80828154811061108457611083611930565b5b905f5260205f2090600802016005015f8473ffffffffffffffffffffffffffffffffffffffff1673ffffffffffffffffffffffffffffffffffffffff1681526020019081526020015f205490508273ffffffffffffffffffffffffffffffffffffffff166108fc8290811502906040515f60405180830381858888f19350505050158015611114573d5f803e3d5ffd5b5050505050565b5f604051905090565b5f80fd5b5f80fd5b5f80fd5b5f80fd5b5f601f19601f8301169050919050565b7f4e487b71000000000000000000000000000000000000000000000000000000005f52604160045260245ffd5b61117a82611134565b810181811067ffffffffffffffff8211171561119957611198611144565b5b80604052505050565b5f6111ab61111b565b90506111b78282611171565b919050565b5f67ffffffffffffffff8211156111d6576111d5611144565b5b6111df82611134565b9050602081019050919050565b828183375f83830152505050565b5f61120c611207846111bc565b6111a2565b90508281526020810184848401111561122857611227611130565b5b6112338482856111ec565b509392505050565b5f82601f83011261124f5761124e61112c565b5b813561125f8482602086016111fa565b91505092915050565b5f819050919050565b61127a81611268565b8114611284575f80fd5b50565b5f8135905061129581611271565b92915050565b5f80604083850312156112b1576112b0611124565b5b5f83013567ffffffffffffffff8111156112ce576112cd611128565b5b6112da8582860161123b565b92505060206112eb85828601611287565b9150509250929050565b5f6020828403121561130a57611309611124565b5b5f82013567ffffffffffffffff81111561132757611326611128565b5b6113338482850161123b565b91505092915050565b5f81519050919050565b5f82825260208201905092915050565b5f819050602082019050919050565b5f73ffffffffffffffffffffffffffffffffffffffff82169050919050565b5f61138e82611365565b9050919050565b61139e81611384565b82525050565b5f6113af8383611395565b60208301905092915050565b5f602082019050919050565b5f6113d18261133c565b6113db8185611346565b93506113e683611356565b805f5b838110156114165781516113fd88826113a4565b9750611408836113bb565b9250506001810190506113e9565b5085935050505092915050565b5f6020820190508181035f83015261143b81846113c7565b905092915050565b5f6020828403121561145857611457611124565b5b5f61146584828501611287565b91505092915050565b61147781611384565b82525050565b5f81519050919050565b5f82825260208201905092915050565b5f5b838110156114b4578082015181840152602081019050611499565b5f8484015250505050565b5f6114c98261147d565b6114d38185611487565b93506114e3818560208601611497565b6114ec81611134565b840191505092915050565b61150081611268565b82525050565b5f8115159050919050565b61151a81611506565b82525050565b5f60c0820190506115335f83018961146e565b818103602083015261154581886114bf565b905061155460408301876114f7565b611561606083018661146e565b61156e60808301856114f7565b61157b60a0830184611511565b979650505050505050565b5f6020820190506115995f8301846114f7565b92915050565b5f6040820190506115b25f83018561146e565b6115bf60208301846114f7565b9392505050565b7f4e487b71000000000000000000000000000000000000000000000000000000005f52602260045260245ffd5b5f600282049050600182168061160a57607f821691505b60208210810361161d5761161c6115c6565b5b50919050565b5f819050815f5260205f209050919050565b5f6020601f8301049050919050565b5f82821b905092915050565b5f6008830261167f7fffffffffffffffffffffffffffffffffffffffffffffffffffffffffffffffff82611644565b6116898683611644565b95508019841693508086168417925050509392505050565b5f819050919050565b5f6116c46116bf6116ba84611268565b6116a1565b611268565b9050919050565b5f819050919050565b6116dd836116aa565b6116f16116e9826116cb565b848454611650565b825550505050565b5f90565b6117056116f9565b6117108184846116d4565b505050565b5b81811015611733576117285f826116fd565b600181019050611716565b5050565b601f8211156117785761174981611623565b61175284611635565b81016020851015611761578190505b61177561176d85611635565b830182611715565b50505b505050565b5f82821c905092915050565b5f6117985f198460080261177d565b1980831691505092915050565b5f6117b08383611789565b9150826002028217905092915050565b6117c98261147d565b67ffffffffffffffff8111156117e2576117e1611144565b5b6117ec82546115f3565b6117f7828285611737565b5f60209050601f831160018114611828575f8415611816578287015190505b61182085826117a5565b865550611887565b601f19841661183686611623565b5f5b8281101561185d57848901518255600182019150602085019450602081019050611838565b8683101561187a5784890151611876601f891682611789565b8355505b6001600288020188555050505b505050505050565b7f4e487b71000000000000000000000000000000000000000000000000000000005f52601160045260245ffd5b5f6118c682611268565b91506118d183611268565b92508282026118df81611268565b915082820484148315176118f6576118f561188f565b5b5092915050565b5f61190782611268565b915061191283611268565b925082820190508082111561192a5761192961188f565b5b92915050565b7f4e487b71000000000000000000000000000000000000000000000000000000005f52603260045260245ffd5b5f61196782611268565b91507fffffffffffffffffffffffffffffffffffffffffffffffffffffffffffffffff82036119995761199861188f565b5b600182019050919050565b7f41756374696f6e2068617320656e6465640000000000000000000000000000005f82015250565b5f6119d8601183611487565b91506119e3826119a4565b602082019050919050565b5f6020820190508181035f830152611a05816119cc565b9050919050565b7f41756374696f6e206973206e6f742061637469766500000000000000000000005f82015250565b5f611a40601583611487565b9150611a4b82611a0c565b602082019050919050565b5f6020820190508181035f830152611a6d81611a34565b9050919050565b7f5468652073656c6c65722063616e6e6f742062696400000000000000000000005f82015250565b5f611aa8601583611487565b9150611ab382611a74565b602082019050919050565b5f6020820190508181035f830152611ad581611a9c565b9050919050565b5f604082019050611aef5f8301856114f7565b8181036020830152611b0181846114bf565b90509392505050565b5f81905092915050565b5f819050815f5260205f209050919050565b5f8154611b32816115f3565b611b3c8186611b0a565b9450600182165f8114611b565760018114611b6b57611b9d565b60ff1983168652811515820286019350611b9d565b611b7485611b14565b5f5b83811015611b9557815481890152600182019150602081019050611b76565b838801955050505b50505092915050565b5f611bb18284611b26565b915081905092915050565b7f4974656d206e6f7420666f756e640000000000000000000000000000000000005f82015250565b5f611bf0600e83611487565b9150611bfb82611bbc565b602082019050919050565b5f6020820190508181035f830152611c1d81611be4565b9050919050565b7f41756374696f6e206861736e277420656e6465642079657400000000000000005f82015250565b5f611c58601883611487565b9150611c6382611c24565b602082019050919050565b5f6020820190508181035f830152611c8581611c4c565b9050919050565b5f6060820190508181035f830152611ca481866114bf565b9050611cb3602083018561146e565b611cc060408301846114f7565b94935050505056fea26469706673582212203b3ebff13878c45a55ad729c135facb24e43b7b1aa010ad8873aa74b390a407564736f6c63430008150033",
  "immutableReferences": {},
  "source": "// SPDX-License-Identifier: MIT\r\npragma solidity ^0.8.0;\r\n\r\ncontract Auction {\r\n    struct Item {\r\n        address seller;\r\n        string itemName;\r\n        uint256 auctionEndTime;\r\n        address highestBidder;\r\n        uint256 highestBid;\r\n        mapping(address => uint256) bidAmounts;\r\n        address[] bidders;\r\n        bool active;\r\n    }\r\n\r\n    Item[] public items;\r\n    uint256[] public expirationTimestamps; \r\n\r\n    event NewBid(address indexed bidder, uint256 amount, string itemName);\r\n    event AuctionEnded(string itemName, address winner, uint256 amount);\r\n\r\n    modifier onlyItemSeller(string memory itemName) {\r\n        uint256 itemIndex = getItemIndex(itemName);\r\n        require(msg.sender == items[itemIndex].seller, \"Only the seller can call this\");\r\n        _;\r\n    }\r\n\r\n    modifier onlyBeforeEnd(string memory itemName) {\r\n        uint256 itemIndex = getItemIndex(itemName);\r\n        require(block.timestamp < items[itemIndex].auctionEndTime, \"Auction has ended\");\r\n        _;\r\n    }\r\n\r\n    modifier onlyAfterEnd(string memory itemName) {\r\n        uint256 itemIndex = getItemIndex(itemName);\r\n        require(block.timestamp >= items[itemIndex].auctionEndTime, \"Auction hasn't ended yet\");\r\n        _;\r\n    }\r\n\r\n    function createItem(string memory itemName, uint256 durationInMinutes) external {\r\n        Item storage newItem = items.push();\r\n        newItem.seller = msg.sender;\r\n        newItem.itemName = itemName;\r\n        newItem.auctionEndTime = block.timestamp + (durationInMinutes * 1 minutes) + 5 seconds;\r\n        newItem.active = true;\r\n        expirationTimestamps.push(newItem.auctionEndTime);\r\n    }\r\n\r\n    function getItemIndex(string memory itemName) internal view returns (uint256) {\r\n        for (uint256 i = 0; i < items.length; i++) {\r\n            if (keccak256(bytes(items[i].itemName)) == keccak256(bytes(itemName))) {\r\n                return i;\r\n            }\r\n        }\r\n        revert(\"Item not found\");\r\n    }\r\n   \r\n    function placeBid(string memory itemName) external payable onlyBeforeEnd(itemName) {\r\n    uint256 itemIndex = getItemIndex(itemName);\r\n    require(items[itemIndex].active, \"Auction is not active\");\r\n    require(msg.sender != items[itemIndex].seller, \"The seller cannot bid\");\r\n\r\n    // Pay back the previous bid amount to the bidder\r\n    if (items[itemIndex].bidAmounts[msg.sender] > 0) {\r\n        payable(msg.sender).transfer(items[itemIndex].bidAmounts[msg.sender]);\r\n    }\r\n\r\n    // Overwrite the previous bid amount with the new one\r\n    items[itemIndex].bidAmounts[msg.sender] = msg.value;\r\n    uint256 newBidAmount = msg.value;\r\n\r\n    if (newBidAmount > items[itemIndex].highestBid) {\r\n        items[itemIndex].highestBidder = msg.sender;\r\n        items[itemIndex].highestBid = newBidAmount;\r\n    }\r\n\r\n    bool alreadyExists = false;\r\n    for (uint256 i = 0; i < items[itemIndex].bidders.length; i++) {\r\n        if (items[itemIndex].bidders[i] == msg.sender) {\r\n            alreadyExists = true;\r\n            break;\r\n        }\r\n    }\r\n\r\n    if (!alreadyExists) {\r\n        items[itemIndex].bidders.push(msg.sender);\r\n    }\r\n\r\n    emit NewBid(msg.sender, newBidAmount, itemName);\r\n}\r\n\r\n\r\n\r\n\r\n    function refund(string memory itemName, address recipient ) internal {\r\n        uint256 itemIndex = getItemIndex(itemName);\r\n        uint256 refundAmount = items[itemIndex].bidAmounts[recipient];\r\n        payable(recipient).transfer(refundAmount);\r\n\r\n    }\r\n\r\n    function endAuction(string memory itemName ) internal onlyAfterEnd(itemName) {\r\n        uint256 itemIndex = getItemIndex(itemName);\r\n        require(items[itemIndex].active, \"Auction is not active\");\r\n\r\n        items[itemIndex].active = false;\r\n        emit AuctionEnded(itemName, items[itemIndex].highestBidder, items[itemIndex].highestBid);\r\n\r\n        for (uint256 i = 0; i < items[itemIndex].bidders.length; i++) {\r\n          if(items[itemIndex].bidders[i] != items[itemIndex].highestBidder)\r\n            refund(itemName, items[itemIndex].bidders[i] );\r\n        }\r\n\r\n         \r\n\r\n        payable(items[itemIndex].seller).transfer(items[itemIndex].highestBid);\r\n    }\r\n\r\n    function getBidders(string memory itemName) external view returns (address[] memory) {\r\n        uint256 itemIndex = getItemIndex(itemName);\r\n        return items[itemIndex].bidders;\r\n    }\r\n\r\n    function getHighestBidderAndAmount(string memory itemName) external view returns (address, uint256) {\r\n        uint256 itemIndex = getItemIndex(itemName);\r\n        return (items[itemIndex].highestBidder, items[itemIndex].highestBid);\r\n    }\r\n\r\n    function checkExpiredItems() external {\r\n        uint256 currentTime = block.timestamp;\r\n        for (uint256 i = 0; i < expirationTimestamps.length; i++) {\r\n            if (expirationTimestamps[i] <= currentTime && items[i].active == true) {\r\n                // Call endAuction for the expired item\r\n                endAuction(items[i].itemName);\r\n            }\r\n        }\r\n    }\r\n}\r\n",
  "sourcePath": "D:\\Auction_System\\auctioneer\\src\\Backend\\contracts\\Auction.sol",
  "compiler": {
    "name": "solc",
    "version": "0.8.21+commit.d9974bed.Emscripten.clang"
  },
  "schemaVersion": "3.4.15",
  "updatedAt": "2024-02-07T11:32:47.093Z",
  "networkType": "ethereum",
  "devdoc": {
    "kind": "dev",
    "methods": {},
    "version": 1
  },
  "userdoc": {
    "kind": "user",
    "methods": {},
    "version": 1
  }
}